:020000040800F2
:10000000C00F00206D1600084104000843040008DA
:10001000470400084B0400084F04000800000000DB
:100020000000000000000000000000005304000871
:100030005504000800000000570400085904000897
:100040008D1600088D1600088D1600088D16000804
:100050008D1600088D1600088D1600088D160008F4
:100060008D1600088D1600088D1600088D160008E4
:100070008D1600088D1600088D1600088D160008D4
:100080008D1600088D1600088D1600088D160008C4
:100090008D1600088D1600088D1600088D160008B4
:1000A0008D1600088D1600088D1600088D160008A4
:1000B0008D1600088D1600088D1600088D16000894
:1000C0008D1600088D1600088D1600088D16000884
:1000D0008D160008E11500088D1600088D16000821
:1000E0008D1600088D1600088D1600088D16000864
:1000F0008D1600088D1600088D1600088D16000854
:100100008D1600088D1600088D1600088D16000843
:100110008D1600088D1600088D1600088D16000833
:100120008D1600088D1600088D1600088D16000823
:100130008D1600088D1600088D1600088D16000813
:100140008D1600088D1600088D1600088D16000803
:100150008D1600088D1600088D1600088D160008F3
:100160008D1600088D1600088D1600088D160008E3
:100170008D1600088D1600088D1600088D160008D3
:100180008D1600088D1600088D1600088D160008C3
:100190008D1600088D1600088D1600088D160008B3
:1001A00000000000000000008D16000800F002F8BA
:1001B00000F03CF80AA090E8000C82448344AAF1C5
:1001C0000107DA4501D100F031F8AFF2090EBAE8C3
:1001D0000F0013F0010F18BFFB1A43F0010318477B
:1001E000A8380000C8380000103A24BF78C878C189
:1001F000FAD8520724BF30C830C144BF04680C602D
:10020000704700000023002400250026103A28BF74
:1002100078C1FBD8520728BF30C148BF0B60704778
:100220001FB503F0FCFB1FBD10B510BD02F0AEFB07
:100230001146FFF7F5FF00F09AF802F0CCFB03B48B
:10024000FFF7F2FF03BC01F06BF90000694890ED85
:10025000000ADFED690A20EE200ABDEEC00A6748F9
:1002600080ED000A634890ED010ADFED630A20EE9D
:10027000200ABDEEC00A624880ED000A5D4890ED9C
:10028000020ADFED5D0A20EE200ABDEEC00A5D48DD
:1002900080ED000A5C4890ED000ADFED570A20EE81
:1002A000200ABDEEC00A594880ED000A564890ED7C
:1002B000010ADFED510A20EE200ABDEEC00A5448C3
:1002C00080ED000A504890ED020ADFED4B0A20EE67
:1002D000200ABDEEC00A4F4880ED000A4E4890ED5E
:1002E000000ADFED450A20EE200ABDEEC00A4B48A9
:1002F00080ED000A484890ED010ADFED3F0A20EE4C
:10030000200ABDEEC00A464880ED000A424890ED42
:10031000020ADFED390A20EE200ABDEEC00A41488C
:1003200080ED000A404890ED000ADFED400A20EE23
:10033000200ABDEEC00A3E4880ED000A3A4890ED22
:10034000010ADFED3A0A20EE200ABDEEC00A394864
:1003500080ED000A344890ED020ADFED340A20EE09
:10036000200ABDEEC00A344880ED000A70474FF401
:10037000407001F09FF9A82001F03AF801210846E9
:1003800001F02FFD0121042001F02BFD01210803C4
:1003900001F07FFD0121880301F06AFD00F078F98A
:1003A000012000F0A4F900F059F82449087000F089
:1003B0001DFB2249087000F09DFD2049087000F0E7
:1003C00027FB002000F068FC00F086FD10E00948E3
:1003D00000F06DFB0C4800F0C2FB0F4800F0C0FCC1
:1003E000114800F044FEFFF731FF012001F062F8F0
:1003F000EDE700006400002000007A4404000020C3
:10040000080000200C0000207000002010000020D8
:1004100014000020180000207C0000201C00002098
:100420002000002024000020880000200000C84296
:10043000280000202C0000203000002000000020B8
:10044000704700BFFEE700BFFEE700BFFEE700BF4A
:10045000FEE77047704770477047000008B50122FB
:100460006946752000F073FA9DF80000682801D1F4
:10047000012008BD0020FCE710B580216B2000F0B2
:1004800056FA322001F032F80321682000F04FFACA
:10049000322001F02BF800216B2000F048FA0520F3
:1004A00001F02FF810216A2000F041FA052001F038
:1004B00028F800216C2000F03AFA052001F021F81C
:1004C0000021192000F033FA052001F01AF802216A
:1004D000372000F02CFA052001F013F803211A2030
:1004E00000F025FA052001F00CF810211B2000F087
:1004F0001EFA052001F005F810211C2000F017FA63
:10050000052000F0F3FF10BD1FB50446062202A926
:100510003B2000F01CFA9DF809009DF8081040EA05
:10052000012000B2ADF800009DF80B009DF80A1004
:1005300040EA012000B2ADF802009DF80D009DF8E0
:100540000C1040EA012000B2ADF80400BDF9000033
:1005500000EE100AB8EEC00ADFED480A20EE200ACD
:1005600084ED000ABDF9020000EE100AB8EEC00AE0
:10057000DFED420A20EE200A84ED010ABDF90400F5
:1005800000EE100AB8EEC00ADFED3C0A20EE200AA9
:1005900084ED020A012000F0B4FF1FBD1FB5044620
:1005A000062202A9432000F0D2F99DF809009DF827
:1005B000081040EA012000B2ADF800009DF80B00E1
:1005C0009DF80A1040EA012000B2ADF802009DF843
:1005D0000D009DF80C1040EA012000B2ADF80400B7
:1005E000BDF9000000EE100AB8EEC00ADFED240AE3
:1005F00020EE200A84ED000ABDF9020000EE100A88
:10060000B8EEC00ADFED1E0A20EE200A84ED010AD2
:10061000BDF9040000EE100AB8EEC00ADFED180ABA
:1006200020EE200A84ED020A012000F06AFF1FBDBF
:1006300038B5044602226946412000F088F99DF849
:1006400001009DF8001040EA012000B20D49088029
:100650000846B0F9000000EE100AB8EEC00ADFED5F
:100660000A0A80EE201A9FED090A31EE000A84ED95
:10067000000A012000F045FF38BD0000D5FF7F399A
:10068000EF01FA3C340000200000AA43B81E1242D9
:100690001CB501208DF8040003208DF80500002012
:1006A0008DF806008DF80700042000906946CA48BE
:1006B00001F0F6F84FF4005000906946C64801F08A
:1006C000EFF84FF4004000906946C34801F0E8F8A5
:1006D0000421C14801F060F94FF40051BE4801F017
:1006E0005BF94FF40041BC4801F056F91CBD10B550
:1006F00088B0044602208DF8080003208DF8090018
:1007000000208DF80A0002208DF80B000020ADF8C3
:100710000C004FF48270ADF80E000020ADF8100010
:10072000ADF81200ADF814004FF40070ADF81600EB
:100730000020ADF81A000720ADF81C00012C2CD1C8
:1007400005220721A54801F036F905220621A34814
:1007500001F031F905221146A04801F02CF9802062
:10076000019001A99D4801F09BF84020019001A94A
:100770009A4801F095F82020019001A9974801F0CE
:100780008FF81020ADF8180003A9954801F0C8FCB7
:100790000121934801F0BEFD2DE0022C2BD1052252
:1007A00003218D4801F007F9052202218A4801F052
:1007B00002F905220D218B4801F0FDF80820019077
:1007C00001A9854801F06CF80420019001A9824834
:1007D00001F066F82003019001A9824801F060F859
:1007E0001020ADF8180003A97F4801F099FC012101
:1007F0007D4801F08FFD08B010BD70B504460D4670
:10080000012C16D100BF0221754801F04DFE0028D1
:10081000F9D02946724801F0FEFD00BF0121704861
:1008200001F042FE0028F9D06D4801F0F1FDC0B2A0
:1008300070BD022C16D100BF02216B4801F034FEBE
:100840000028F9D02946684801F0E5FD00BF0121E4
:10085000654801F029FE0028F9D0634801F0D8FD71
:10086000C0B2E5E70020E3E72DE9F04106460C467B
:1008700015469846012E25D11EE015B115F8010B3D
:1008800000E0FF20074600BF0221554801F00CFEA2
:100890000028F9D03946524801F0BDFD00BF0121C2
:1008A0004F4801F001FE0028F9D04D4801F0B0FD9D
:1008B000C7B20CB104F8017B5FEA0800A8F1010897
:1008C000DBD126E0022E24D11EE015B115F8010B74
:1008D00000E0FF20074600BF0221434801F0E4FD8D
:1008E0000028F9D03946404801F095FD00BF0121AC
:1008F0003D4801F0D9FD0028F9D03B4801F088FDC2
:10090000C7B20CB104F8017B5FEA0800A8F1010846
:10091000DBD1BDE8F08110B504212F4801F03EF88D
:1009200010BD10B504212C4801F036F810BD70B58B
:1009300004460D46FFF7EFFF21460120FFF75DFF5C
:1009400029460120FFF759FFFFF7EBFF70BD70B597
:1009500004460E461546FFF7DEFF44F080010120F5
:10096000FFF74BFF2B46002231460120FFF77CFFAB
:10097000FFF7D7FF70BD10B54FF40041164801F0E6
:100980000DF810BD10B54FF40041134801F004F804
:1009900010BD70B504460D46FFF7EDFF214601205E
:1009A000FFF72BFF29460120FFF727FFFFF7EAFF9C
:1009B00070BD70B504460E461546FFF7DCFF2146B4
:1009C0000120FFF71AFF2B46002231460120FFF7D6
:1009D0004BFFFFF7D7FF70BD000802400000024048
:1009E00000300140000402400038004008B50122F8
:1009F00069467520FFF7ABFF9DF80000702803D013
:100A00009DF80000712801D1012008BD0020FCE7FD
:100A100010B580216B20FFF78AFF642000F066FD8F
:100A200003216820FFF783FF642000F05FFD0321AE
:100A30006B20FFF77CFF052000F063FD10216A208A
:100A4000FFF775FF052000F05CFD00216C20FFF72B
:100A50006EFF052000F055FD00211920FFF767FF0C
:100A6000052000F04EFD02213720FFF760FF052032
:100A700000F047FD03211A20FFF759FF052000F081
:100A800040FD10211B20FFF752FF052000F039FD2B
:100A900010211C20FFF74BFF052000F032FD032141
:100AA0001D20FFF744FF052000F020FD10BD1FB5FD
:100AB0000446062202A93B20FFF749FF9DF80900E2
:100AC0009DF8081040EA012000B2ADF800009DF842
:100AD0000B009DF80A1040EA012000B2ADF80200B8
:100AE0009DF80D009DF80C1040EA012000B2ADF811
:100AF0000400BDF80000ADF80000BDF8020040425F
:100B000000B2ADF80200BDF80400ADF80400BDF974
:100B1000000000EE100AB8EEC00ADFED500A20EE29
:100B2000200A84ED000ABDF9020000EE100AB8EEBA
:100B3000C00ADFED4A0A20EE200A84ED010ABDF961
:100B4000040000EE100AB8EEC00ADFED440A20EE01
:100B5000200A84ED020A012000F0D3FC1FBD1FB55E
:100B60000446062202A94320FFF7F1FE9DF8090082
:100B70009DF8081040EA012000B2ADF800009DF891
:100B80000B009DF80A1040EA012000B2ADF8020007
:100B90009DF80D009DF80C1040EA012000B2ADF860
:100BA0000400BDF80000ADF80000BDF802004042AE
:100BB00000B2ADF80200BDF80400404200B2ADF84A
:100BC0000400BDF9000000EE100AB8EEC00ADFED27
:100BD000240A20EE200A84ED000ABDF9020000EE8E
:100BE000100AB8EEC00ADFED1E0A20EE200A84EDDE
:100BF000010ABDF9040000EE100AB8EEC00ADFEDEC
:100C0000180A20EE200A84ED020A012000F079FC87
:100C10001FBD38B50446022269464120FFF797FE02
:100C20009DF801009DF8001040EA012000B20D4936
:100C300008800846B0F9000000EE100AB8EEC00ABD
:100C4000DFED090A80EE201AB3EE050A31EE000A44
:100C500084ED000A012000F054FC38BDD5FF7F3937
:100C6000EF01FA3C360000205CEFA64370B5044665
:100C70000D464FF400517A4800F090FE21460120C5
:100C8000FFF7BBFD29460120FFF7B7FD4FF40051E8
:100C9000734800F081FE70BD70B588B00446002531
:100CA00000260820019000200290072003903020A9
:100CB00004900020059006901020079084B12078C1
:100CC00021790843217A0843217B0843C0B20543B8
:100CD000207C217D0843217E0843C0B206430FE0FB
:100CE000DDE9010108430399084304990843C0B2B0
:100CF0000543DDE90501084307990843C0B20643EF
:100D000029462020FFF7B2FF322000F0EFFB3146EA
:100D10002320FFF7ABFF322000F0E8FB08B070BDE6
:100D200070B506460C461546012D02DD44F0C004A0
:100D300001E044F080044FF40051494800F02EFED9
:100D400021460120FFF759FD2B46002231460120A4
:100D5000FFF78AFD4FF40051414800F01DFE70BDC1
:100D600030B52DED028B85B0054600200390049030
:100D70000190029000909FED3B0AB0EE408A002463
:100D8000012223216846FFF7CBFF0622282103A872
:100D9000FFF7C6FF9DF8000000F0400090B900BFCB
:100DA0000DE003A911F814106000401C03AA105CA8
:100DB00001EB002000B201A921F81400641C032CEF
:100DC000EFDB11E000240DE06000401C03A9085C8B
:100DD00003AA12F8141000EB012000B201A921F8B7
:100DE0001400641C032CEFDB9DF8000000F03000C1
:100DF00020B1102807D020280FD109E09FED1A0A52
:100E0000B0EE408A09E09FED190AB0EE408A04E096
:100E10009FED170AB0EE408A00BF00BFBDF9040085
:100E200000EE100AB8EEC00AC0EE080AC5ED000ACE
:100E3000BDF9060000EE100AB8EEC00AC0EE080ABE
:100E4000C5ED010ABDF9080000EE100AB8EEC00AAF
:100E5000C0EE080AC5ED020A05B0BDEC028B30BD3C
:100E60000008024000000000EC91E4425492644209
:100E70005C8F644110B54FF40041FE4800F08EFDD8
:100E800010BD10B54FF40041FA4800F085FD10BDCB
:100E900070B504460D46FFF7EDFF21460120FFF730
:100EA000ACFC29460120FFF7A8FCFFF7EAFF70BD64
:100EB00070B504460E461546FFF7DCFF44F080018E
:100EC0000120FFF79AFC2B46002231460120FFF754
:100ED000CBFCFFF7D6FF70BD10B567212020FFF7D0
:100EE000D7FF40212320FFF7D3FF00212520FFF764
:100EF000CFFF10BD08B5012269460F20FFF7D8FFCC
:100F00009DF80000492801D1012008BD0020FCE720
:100F100010B5A0210120FFF7BBFF642000F0E6FA26
:100F200000210220FFF7B4FF642000F0DFFA10BDBB
:100F300070B52DED028B82B004460026002008EE2D
:100F4000100A00250622CC490320FFF7B1FF012239
:100F500001A91046FFF7ACFF9DF8040000F0E00087
:100F6000802823D006DC20280BD0402810D0602811
:100F700036D114E0A02820D0C02825D0E0282FD1D9
:100F800029E040F24C464FF4757008EE100A27E055
:100F900040F257364FF43E7008EE100A20E040F25F
:100FA0009E264FF4167008EE100A19E04FF4E17611
:100FB0004FF4C87008EE100A12E04FF4C87640F201
:100FC000631008EE100A0BE04FF4A57640F22710EC
:100FD00008EE100A04E0E626CD2008EE100A00BF55
:100FE00000BFA5484078A449097800EB012085B2EC
:100FF00028B200EE100AB8EEC00ADFEDA00A20EE1B
:10100000200AF8EE480A80EE201A84ED001A9A4869
:10101000C0789949897800EB012085B228B200EEAA
:10102000100AB8EEC00ADFED950A20EE200AF8EEAD
:10103000480A80EE201A84ED021A8F4840798E49C2
:10104000097900EB012085B228B200EE100AB8EE53
:10105000C00ADFED8A0A20EE200AF8EE480A80EE88
:10106000201A84ED011A02B0BDEC028B70BD10B5E0
:101070002DED028B04469FED820AB0EE408A0122DC
:1010800080492820FFF714FF01227E49491C2920AE
:10109000FFF70EFF7B4800787A49497840EA012043
:1010A00000B200EE100AB8EEC00A20EE080A84ED85
:1010B000000A01227349891C2A20FFF7F9FE012248
:1010C0007049C91C2B20FFF7F3FE6E4880786D49EC
:1010D000C97840EA012000B200EE100AB8EEC00A5A
:1010E00020EE080A84ED010A01226649091D2C2020
:1010F000FFF7DEFE01226349491D2D20FFF7D8FED0
:10110000604800795F49497940EA012000B200EE69
:10111000100AB8EEC00A20EE080A84ED020ABDECFF
:10112000028B10BD2DE9F0412DED108B04460D46CC
:101130009FED550AB0EE408A9FED530AF0EE40DA7B
:101140009FED510AF0EE40AA9FED4F0A10EE107A83
:1011500000260DE004EB860090ED000ADFED4B0A5F
:1011600080EE201A04EB860080ED001A701CC6B2D7
:10117000032EEFDB94ED000A20EE000AD4ED010A05
:1011800094ED011A00EE810AD4ED020A94ED021AE0
:1011900000EE810A10EE101A084602F0CFFB41EC77
:1011A0001B0BB0EE4B0AF0EE6B0A01F0C9FDB0EE7E
:1011B00040CAF0EE60CA51EC1C0B01F0CDFE09EE06
:1011C000900A94ED010AC0EE298A28EEA80A10EED2
:1011D000101A084602F0B2FB41EC1C0B9FED2C0BE1
:1011E00053EC102B02F0E8F941EC1B0BB0EE4B0A6C
:1011F000F0EE6B0A01F0A4FDB0EE40EAF0EE60EA1A
:1012000051EC1E0B01F0A8FE0DEE100A94ED000A41
:1012100080EE299A29EE090A10EE101A084602F00B
:101220008DFB41EC1C0B9FED1A0B53EC102B02F0C5
:10123000C3F941EC1E0BB0EE4E0AF0EE6E0A01F05F
:101240007FFDB0EE40BAF0EE60BA51EC1B0B01F03E
:1012500083FE0DEE900A95ED000A20EE2D0AD5EDE5
:10126000020AB0EE40AA00EE89AA95ED000A20EE2F
:10127000280A11E0000802403900002000007A44EA
:10128000E7D01C3A3F000020000000000000C842E8
:10129000000000000000F03F20EE090AD5ED010A31
:1012A00000EE8D0AD5ED020A60EEA80A00EEED0A06
:1012B000F0EE40AA2AEE0A0A0AEEAA0A10EE101A66
:1012C000084602F03BFB41EC1B0BB0EE4B0AF0EE84
:1012D0006B0A01F035FDB0EE40CAF0EE60CA1AEEBE
:1012E000100A02F02BFB41EC1E0B53EC1C2B01F0FF
:1012F0000DFF41EC1F0B01F02FFE0746F5EEC0AAD3
:10130000F1EE10FA25DD384602F018FB41EC1F0B18
:10131000B0EE4F0AF0EE6F0A01F066FBB0EE40EA65
:10132000F0EE60EA9FED2D0B53EC102B51EC1E0BF1
:1013300002F044F841EC1B0B9FED2A0B53EC102BF1
:1013400001F0E4FE41EC1C0B01F006FE08EE100A71
:101350002AE0384602F0F2FA41EC1B0BB0EE4B0AE1
:10136000F0EE6B0A01F040FBB0EE40FAF0EE60FAEE
:101370009FED1A0B53EC102B51EC1F0B02F01EF8D3
:1013800041EC1C0B9FED170B53EC102B01F0BEFE34
:1013900041EC1E0B01F0E0FD00EE100ADFED130A38
:1013A00030EEC00AB0EE408AB2EE060A38EE000A0D
:1013B000B0EE408A9FED0D0AB4EEC08AF1EE10FA4D
:1013C00005DD9FED0A0A38EE400AB0EE408AB0EE25
:1013D000480ABDEC108BBDE8F08100000000000061
:1013E0000080664000000060FB2109400000B4431B
:1013F00010B504466FF0040000F0AEF9E11704EBFD
:101400005171C1F3C701444A11701046007800EBD6
:101410004001C1EBC0104FF6FF7101EAC0003F4927
:10142000088010BD01463C4A12784A434FF0E02341
:101430005A6100229A611A46126942F001021A6149
:1014400000BF4FF0E022106900F001021AB100F471
:101450008032002AF5D04FF0E022126922F001021A
:101460004FF0E0231A6100229A61704701462B4A2F
:1014700012884A434FF0E0235A6100229A611A46CB
:10148000126942F001021A6100BF4FF0E0221069B8
:1014900000F001021AB100F48032002AF5D04FF0BA
:1014A000E022126922F001024FF0E0231A610022CB
:1014B0009A61704770B504464FF4077094FBF0F0E2
:1014C000C6B24FF4077094FBF0F100FB114085B2F7
:1014D00005E04FF40770FFF7C9FF701EC6B2002E7B
:1014E000F7D115B12846FFF7C1FF70BD06E04AF2FB
:1014F000104100E0491E0029FCD1401E0028F6D111
:10150000704705E0232100E0491E0029FCD1401E60
:101510000028F7D170470000480000204A00002052
:10152000014600BF704700BF4C4A128802F04002DB
:10153000002AF9D0C2B2494B9A80704710B588B0E2
:1015400004460121084600F04CFC0121102000F067
:10155000A0FC07220921424800F02DFA07220A21A7
:101560003F4800F028FA4FF4C060069002208DF842
:101570001C008DF81D0000208DF81E0001208DF844
:101580001F0006A9364800F08BF902940020ADF840
:101590000C00ADF80E00ADF81000ADF814000C20F2
:1015A000ADF8120002A92D4801F015F801212B48D1
:1015B00001F099F8012240F22551284801F049F93B
:1015C00025208DF8040003208DF805008DF8060015
:1015D00001208DF8070001A800F071F808B010BDD7
:1015E00010B540F225511D4801F06EF910B31B48AB
:1015F00001F0A8F8C4B21B48008800F40040C8B944
:101600001848008800F4804060B10A2C03D0002004
:101610001449088020E01348008840F40040114934
:10162000088019E00D2C06D10E48008840F4804057
:101630000C49088010E00B480088C0F30D000A49EF
:101640000C5408480088401C064908800846008859
:10165000C72801DD0020088010BD000000100140F7
:101660000000024050000020940000200B48016858
:1016700041F4700101600A480047FEE7FEE7FEE71B
:10168000FEE7FEE7FEE7FEE7FEE7FEE7FEE7000017
:1016900004480549054A064B7047000088ED00E004
:1016A000AD010008C0010020C00F0020C0070020CD
:1016B000C007002032490143324A1160704770B5BB
:1016C000002100230F22C4781CB32E4C246804F49C
:1016D000E064C4F5E064C4F30721C1F10404E3B29B
:1016E0000A4144789C40E1B28478144021430C07BD
:1016F000210E254C05786155047804F01F0501245E
:10170000AC4005786D11AD0005F1E025C5F800414C
:1017100009E0047804F01F050124AC401B4D067855
:10172000761145F8264070BD194A0A400243154B10
:101730001B1F1A60704739B1124A121D126802430A
:10174000104B1B1D1A6006E00E4A121D12688243E0
:101750000C4B1B1D1A607047042808D14FF0E02184
:10176000096941F004014FF0E022116107E04FF0F8
:10177000E021096921F004014FF0E0221161704776
:101780000000FA050CED00E000E400E080E100E07C
:1017900080FFFF1F10B504469848844208D10121FC
:1017A000084600F087FB0021012000F083FB76E073
:1017B0009348844208D10121022000F07BFB0021E4
:1017C000022000F077FB6AE08E48844208D10121B4
:1017D000042000F06FFB0021042000F06BFB5EE0B2
:1017E0008948844208D10121082000F063FB0021D0
:1017F000082000F05FFB52E08448844208D10121B8
:10180000102000F057FB0021102000F053FB46E0B1
:101810007F48844208D10121202000F04BFB0021A9
:10182000202000F047FB3AE07A48844208D10121A9
:10183000402000F03FFB0021402000F03BFB2EE069
:101840007548844208D10121802000F033FB00213B
:10185000802000F02FFB22E07048844208D1012153
:10186000801500F027FB0021A01500F023FB16E0F7
:101870006B48844208D10121401500F01BFB002178
:10188000601500F017FB0AE06648844207D1012189
:10189000001500F00FFB0021201500F00BFB10BD20
:1018A000F0B50A4600210023002400BF3DE00125D9
:1018B00005FA01F3156805EA03049C4234D1056872
:1018C0004F000326BE40B543056015794E00B54074
:1018D0000668354305601579012D02D01579022D72
:1018E00016D185684F000326BE40B5438560557903
:1018F0004E00B540866835438560456801268E40B8
:10190000B5434560456896798E40B6B2354345602B
:10191000C5684F000326BE40B543C560D5794E006B
:10192000B540C6683543C560491C1029BFD3F0BD1A
:101930004FF6FF7101600021017141718171C17128
:10194000704708B54FF480320092009A0A43009223
:10195000009AC261C161009AC261C2690092C26903
:10196000009208BD0246002013690B400BB1012014
:1019700000E0002070470146086980B270470246C7
:10198000002053690B400BB1012000E0002070479C
:101990000146486980B270470183704741837047B0
:1019A0000AB1018300E04183704741617047426999
:1019B0004A4042617047F0B5002300244D07ED0E08
:1019C00002FA05F3CE1000F1200555F826504E0717
:1019D000F70E0F26BE40B543CF1000F1200646F8A3
:1019E0002750CE1000F1200555F8265045EA030493
:1019F000CE1000F1200545F82640F0BD0000024061
:101A00000004024000080240000C024000100240A6
:101A10000014024000180240001C02400020024056
:101A20000024024000280240F648006840F001000F
:101A3000F44908600020F34908310860F148006863
:101A4000F1490840EF490860F048091D0860F04876
:101A5000EC4984310860ED481038091D0860E948F8
:101A6000006820F48020E74908600020E5490C3137
:101A70000860E4498C31086070470021E14A921CFB
:101A8000117011460870704710B5014600220023FE
:101A900000204A11012A02D1DA4C236808E0022A08
:101AA00003D1D84C7034236802E0D64C74342368D8
:101AB00001F01F02012494401C400CB1012000E001
:101AC000002010BD38B5002000900024002500BF84
:101AD0003120FFF7D9FF05460098401C0090009880
:101AE000B0F5A04F01D0002DF2D03120FFF7CCFF90
:101AF00008B1012400E00024204638BD0146002042
:101B0000C04A106820F0F80040EAC1001060704739
:101B1000C049086070470021BA4A703211701170D4
:101B2000012802D004280AD104E00121B54A70320C
:101B3000117005E00521B34A7032117000E000BF5A
:101B400000BF7047B4490860704770B5049C41EA13
:101B500082150126C6EB530645EA0645054345EACC
:101B60000465A84E361D356070BDAA4908667047E9
:101B700010B5830143EA016343EA0273A14C843444
:101B8000236010BDA3498866704710B5830143EAFE
:101B9000016343EA02739B4C8834236010BD9D4966
:101BA000086770479B49C864704702460020954B00
:101BB0000833186820F0EC6042EA01031843914BA7
:101BC000083318607047024600208E4B08331868AF
:101BD00020F0784042EA010318438A4B083318602A
:101BE000704701460020874A0832106820F0030041
:101BF00008431060704783480830006800F00C000C
:101C00007047014600207F4A0832106820F0F0003B
:101C1000084310607047014600207A4A0832106875
:101C200020F4E05008431060704701460020754AD8
:101C30000832106820F4604040EAC100106070472C
:101C4000F0B50021002200240225002602236D4F5A
:101C500008373F6807F00C0121B1042905D0082995
:101C600037D105E06D4F076036E06D4F076033E018
:101C7000644F3F1D3F68C7F38056624F3F1D3F686A
:101C800007F03F036EB1664FB7FBF3F7DFF874C19F
:101C90000CF1040CDCF800C0CCF3881C07FB0CF43E
:101CA0000CE05E4FB7FBF3F7DFF858C10CF1040C02
:101CB000DCF800C0CCF3881C07FB0CF4514F3F1D2F
:101CC0003F68C7F301477F1C7D00B4FBF5F7076051
:101CD00002E0524F076000BF00BF4A4F08373F681D
:101CE00007F0F00109094F4F7A5C0768D740476059
:101CF000444F08373F6807F4E051890A494F7A5C3E
:101D00004768D74087603F4F08373F6807F4604116
:101D1000490B444F7A5C4768D740C760F0BD00214B
:101D200000F44072B2F5407F0AD1364A0832116899
:101D300021F4F8113C4A02401143324A0832116042
:101D4000304A70321268C0F30B031A432D4B7033C4
:101D50001A60704730494439086070472E4940394D
:101D60000860704731490860704701460020254AE5
:101D70008C32106820F01F004A1E1043214A8C321A
:101D800010607047014600201E4A8C32106820F413
:101D9000F8504A1E40EA02201A4A8C3210607047FE
:101DA00001460020174A8C32106820F44010084386
:101DB0001060704701460020124A8C32106820F4EF
:101DC0004000084310607047014600200D4A8C32E5
:101DD000106820F4403008431060704714490860D0
:101DE000704739B1074A303212680243054B30332D
:101DF0001A6006E0034A303212688243014B3033E6
:101E00001A60704700380240FFFFF6EA10300024E5
:101E10000030002000004742800E47420024F400BA
:101E200000127A0052000020FFFCFF0F5C014742C5
:101E3000E011474229B1934A12680243914B1A605C
:101E400004E0904A126882438E4B1A60704739B1A1
:101E50008C4A121D126802438A4B1B1D1A6006E051
:101E6000884A121D12688243864B1B1D1A607047F8
:101E700039B1844A0C3212680243824B0C331A6027
:101E800006E0804A0C32126882437E4B0C331A60A3
:101E9000704739B17B4A103212680243794B1033D4
:101EA0001A6006E0774A103212688243754B10338D
:101EB0001A60704739B1734A243A12680243714B71
:101EC000243B1A6006E06F4A243A126882436D4B45
:101ED000243B1A60704739B16A4A203A12680243BB
:101EE000684B203B1A6006E0664A203A126882433B
:101EF000644B203B1A60704739B1624A1C3A126841
:101F00000243604B1C3B1A6006E05E4A1C3A1268B2
:101F100082435C4B1C3B1A60704739B1594A143AF2
:101F200012680243574B143B1A6006E0554A143AB4
:101F300012688243534B143B1A60704739B1514ABF
:101F4000103A126802434F4B103B1A6006E04D4AAC
:101F5000103A126882434B4B103B1A60704739B1FC
:101F6000484A1C3212680243464B1C331A6006E092
:101F7000444A1C3212688243424B1C331A60704739
:101F800039B1404A2032126802433E4B20331A6076
:101F900006E03C4A2032126882433A4B20331A60F2
:101FA000704739B1374A243212680243354B243323
:101FB0001A6006E0334A243212688243314B2433DC
:101FC0001A60704739B12F4A2C32126802432D4BE8
:101FD0002C331A6006E02B4A2C3212688243294BBC
:101FE0002C331A60704739B1264A303212680243E6
:101FF000244B30331A6006E0224A303212688243A2
:10200000204B30331A607047012808D11D493C31FC
:10201000096841F008011B4A3C32116007E0194988
:102020003C31096821F00801164A3C3211607047C2
:1020300039B1144A273A12780243124B273B1A70DF
:1020400006E0104A273A127882430E4B273B1A705B
:1020500070470C484030006840F0807009494031BA
:102060000860704701460020064A283A12680A4074
:102070000AB1012000E000207047024926390870AB
:10208000704700003438024010B50446FB488442D3
:1020900008D101218014FFF751FF0021A014FFF7A0
:1020A0004DFF3CE0F648844208D101210014FFF7BF
:1020B00034FF00212014FFF730FF30E0F148844264
:1020C00008D10121C013FFF728FF0021E013FFF71B
:1020D00024FF24E0EC48844208D101214014FFF79A
:1020E0002DFF00216014FFF729FF18E0E748844224
:1020F00009D101210805FFF721FF00214FF48010CD
:10210000FFF71CFF0BE0E248844208D1012148059B
:10211000FFF714FF00214FF40010FFF70FFF10BD71
:1021200010B50022028802F441520B884C882343E8
:102130008C882343CC8823430C8923434C89234335
:102140008C892343CC8923431A430280838B4FF22B
:10215000FF74234083830B8A038210BD2DE9F04F67
:102160000025022300244FF0010900220026002749
:1021700094469046B0F81CA04FF2400B0AEA0B0AB6
:10218000A0F81CA04FF0020AA0F820A0858BD1F87F
:1021900008A0BAF1020F01D100BF82E0B1F804A09B
:1021A000BAF1000F02D14FF0010901E04FF002092E
:1021B000DFF8E0A2DAF800A00AF4000ABAF1000F92
:1021C00009D0DFF8D0A2DAF800A02AF4000ADFF87C
:1021D000C4B2CBF800A0DFF8BCA20AF17C0ADAF89E
:1021E00000A0CAF3881CDFF8ACA20AF17C0ADAF876
:1021F00000A0CAF30278DFF89CA2AAF1040ADAF878
:1022000000A00AF03F07DFF88CA2AAF1040ADAF86E
:1022100000A00AF4800ABAF5800F08D1DFF878A28E
:10222000BAFBF7FA0AFB0CFABAFBF8F607E0DFF89C
:102230006CA2BAFBF7FA0AFB0CFABAFBF8F6B1F893
:1022400006A0BAF5007F0ED14FEA162A0AEB8A0AD9
:102250004FEA4A0AD1F808B0BAFBFBFA0AF1050ABC
:102260001FFA8AF20FE04FEA491AB6FBFAFA0AEBB4
:102270008A0A4FEA4A0AD1F808B0BAFBFBFA0AF117
:10228000050A1FFA8AF24FF00A0AB2FBFAF202F0CC
:102290000104A2EB040ACAF34F034FF6FF7A0AEADD
:1022A0000424022B01DBFF2B01DD02230024B1F803
:1022B00006A04AEA040A4AEA030AA0F820A0B1F8F4
:1022C00004A0B1F80CB04AEA0B0AB1F802B04AEA2D
:1022D0000B0AB1F800B04AEA0B0A4AF4006A4AEA6B
:1022E00005058583BDE8F08F002101804180818054
:1022F000C180018141818181C181072101827047B3
:102300000021018041808180C18002218160002103
:102310008181704721B1028842F04002028004E0CE
:1023200002884FF6BF731A400280704721B1828B3A
:1023300042F48062828304E0828B4FF6FF331A40BE
:102340008283704702884FF2FF731A40028002882E
:102350000A4302807047B1F5804F04D1028842F4ED
:102360008042028004E002884BF6FF731A4002802C
:1023700070474FF6FF62914204D0028842F48072A7
:10238000028004E002884FF6FF631A400280704723
:1023900021B1828842F00402828004E082884FF6F4
:1023A000FB731A408280704721B1828842F010028C
:1023B000828004E082884FF6EF731A408280704773
:1023C00030B500220023848B4FF240052C408483DB
:1023D00002240484828B0C88B4F5007F01D00C8821
:1023E00014B94FF4807308E00C88B4F5407F03D033
:1023F0000C88B4F5807F00D100238C888D892C4314
:102400004D882C431C4344F400642243828330BD36
:102410000146888970478181704721B1028842F462
:102420000052028004E002884DF6FF731A400280D9
:102430007047018841F480510180704702460020B6
:10244000012901D0108B00E0908A70470146088A6C
:1024500070471AB183880B43838002E083888B43E3
:102460008380704730B5002400230C110125A5405E
:10247000ABB2AAB185881D43858014E000300140CD
:1024800000380040003C0040003401400050014052
:10249000005401400838024000127A000024F40081
:1024A00085889D43858030BD0246002013890B40FE
:1024B0000BB1012000E000207047CA430281704741
:1024C000F0B50246002000240023002501F00F078C
:1024D0000126BE40B4B20B1101269E40B3B29688CD
:1024E00006EA03051689264016B10DB1012000E069
:1024F0000020F0BD10B5002201F00F040123A3401D
:102500009AB2D343038110BD10B50446FA48844201
:1025100008D101211020FFF711FD00211020FFF745
:102520000DFD57E0F548844209D101214804FFF729
:10253000F4FC00214FF40030FFF7EFFC4AE0F048D4
:10254000844209D101218804FFF7E7FC00214FF400
:102550008020FFF7E2FC3DE0EA48844209D10121F6
:10256000C804FFF7DAFC00214FF40020FFF7D5FC88
:1025700030E0E548844209D101210805FFF7CDFC90
:1025800000214FF48010FFF7C8FC23E0DF488442AD
:1025900008D101212020FFF7D1FC00212020FFF7E6
:1025A000CDFC17E0DA48844209D101218807FFF702
:1025B000B4FC00214FF08040FFF7AFFC0AE0D548A3
:1025C000844207D101214005FFF7A7FC00216005E7
:1025D000FFF7A3FC10BD2DE9FF4705460E4600247A
:1025E000A14600BFA046B08900B100BF2C8A24F4E8
:1025F0004054F08804432C82AC8941F20C6084433F
:10260000B08831890843718908430443AC81AC8A9E
:1026100024F44074B0890443AC826846FFF710FB91
:10262000B548854202D0B948854202D1DDF80C9008
:1026300001E0DDF80890A88900F4004040B109EB02
:10264000C90000EB091031684900B0FBF1F707E061
:1026500009EBC90000EB091031688900B0FBF1F704
:102660006420B7FBF0F004012009642101FB10781D
:10267000A88900F4004040B1322000EBC800B0FB54
:10268000F1F000F00700044308E0322000EB0810EE
:102690006421B0FBF1F000F00F0004432C81BDE891
:1026A000FF874FF41651016000218180C1800181B4
:1026B0000C21418100218181704710B50246002024
:1026C000108A20F470600B884C8823438C88234345
:1026D000CC8823431843108210BD00210180418023
:1026E0008180C180704721B1828942F40052828189
:1026F00004E082894DF6FF731A4082817047028B95
:1027000002F47F420283028B0A430283704721B1A5
:10271000828942F40042828103E08289C2F30E0280
:102720008281704721B1828A42F40062828204E091
:10273000828A4FF2FF731A4082827047C1F3080207
:102740008280704701468888C0F308007047028A7B
:102750004FF6F0731A400282028A0A4302827047DF
:1027600021B1828942F00202828104E082894FF61F
:10277000FD731A408281704782894FF2FF731A40BD
:10278000828182890A4382817047028A4FF6DF7311
:102790001A400282028A0A430282704721B1028AE9
:1027A00042F48042028204E0028A4BF6FF731A4030
:1027B00002827047818941F001018181704721B116
:1027C000828A42F00802828204E0828A4FF6F7731E
:1027D0001A4082827047028BD2B20283028B42EA95
:1027E00001220283704721B1828A42F02002828254
:1027F00004E0828A4FF6DF731A408282704721B16B
:10280000828A42F01002828204E0828A4FF6EF73DD
:102810001A4082827047828A4FF6FB731A40828286
:10282000828A0A438282704721B1828A42F0020280
:10283000828204E0828A4FF6FD731A4082827047DA
:102840001AB1838A0B43838202E0838A8B4383829B
:102850007047F0B50346002400260025002040F60E
:102860006A17B94200D100BF1846C1F3421401F003
:102870001F06012707FA06F5012C01D10C3004E0F0
:10288000022C01D1103000E014301AB107682F4338
:10289000076002E00768AF430760F0BD0246002012
:1028A000B1F5007F00D100BF13880B400BB10120B0
:1028B00000E00020704701F40072B2F5007F00D103
:1028C00000BFCA430280704770B50246002400234F
:1028D0000025002040F66A16B14200D100BFC1F3C6
:1028E000421501F01F03012606FA03F3012D13D14F
:1028F0009689334017E0000000100140004400407A
:1029000000480040004C00400050004000140140CE
:1029100000780040007C0040022D02D1168A33402E
:1029200001E0968A33400C12012606FA04F4168858
:10293000344013B10CB1012000E0002070BD10B58F
:102940000022002340F66A14A14200D100BF0A12FF
:1029500001249440A3B2DC43048010BD704770474B
:1029600070477047704710B500F008F8006810BD58
:1029700010B5044600F002F8046010BD004870472E
:102980005C010020004870475C0100207546FFF79D
:10299000F9FFAE4605006946534620F0070085461C
:1029A00018B020B5FEF774FEBDE820404FF00006D9
:1029B0004FF000074FF000084FF0000B21F0070127
:1029C000AC46ACE8C009ACE8C009ACE8C009ACE86A
:1029D000C0098D4670470446AFF300802046FDF7DE
:1029E0002EFC00000000000010B5B94A2DED020BCE
:1029F0002DED0C8B82B00F9921F000409FEDB6CBEE
:102A000090422CDBA0F140530E9AA3F17F631A434E
:102A10000FD0B349884202DC16D10E98A0B19DEDCB
:102A20000E0B02B0BDEC0C8B02B0BDE8104000F004
:102A300040BA0029C1BF9FEDAC0B02B0BDEC0C8BBE
:102A400002B0C8BF10BD16E00120FFF791FF02B031
:102A5000BDEC0C8B02B0BDE8104000F035BAA44AC2
:102A60009FEDA59B9FEDA6AB90425EDAA6499FED38
:102A7000A8CB814208DBB0EE4C0AF0EE6C0A02B043
:102A8000BDEC0C8B02B010BD9DED0E0B53EC102B6A
:102A900051EC100B00F092FC41EC180B9E48062103
:102AA000B0EE480AF0EE680A784400F086F953EC7C
:102AB000182B51EC100B00F081FC41EC1B0B9748DC
:102AC000B0EE480AF0EE680A0421784400F075F987
:102AD00053EC182B51EC100B00F070FC53EC192B3D
:102AE00000F06CFA41EC100B51EC1B0B53EC102B6B
:102AF00000F00CFB41EC100B53EC102B9DED0E0B7A
:102B000051EC100B00F05AFC53EC1A2B00F054FD62
:102B10009DED0E1B53EC112B00F04EFD53EC1C2BC6
:102B200000F04AFD41EC100BA9E79FED7D8B9FED76
:102B30007EBB9DED0E0B002953EC192B51EC100BB5
:102B400052DA00F03BFA53EC182B00F037FC41EC62
:102B5000180B77480621B0EE480AF0EE680A784470
:102B600000F02BF953EC182B51EC100B00F026FC65
:102B700041EC1D0B6F48B0EE480AF0EE680A0421E4
:102B8000784400F01AF953EC182B51EC100B00F0BC
:102B900015FC53EC192B00F011FA41EC190B51EC18
:102BA000180B00F0A1F941EC180B53EC192B51EC68
:102BB0001D0B00F0ABFA53EC182B00F0FFFB53ECAD
:102BC0001A2B00F0D1FD41EC100B51EC180B53EC1B
:102BD000102B00F0F3F953EC1B2B00F0EFFB53EC40
:102BE0001C2B00F0E9FC6DE000F0E6FC53EC182B28
:102BF00000F0E4FB41EC180B00F076F941EC1A0B05
:102C000000208DED00AB00909DED000B51EC1A0BF8
:102C100053EC102B00F0D2F99DED000B41EC1C0B96
:102C200053EC102B51EC100B00F0C8FB53EC182B9D
:102C300000F0C2FC53EC1C2B00F068FA41EC1C0BBA
:102C40003D48B0EE480AF0EE680A0621784400F0EC
:102C5000B4F853EC182B51EC100B00F0AFFB41EC27
:102C60001D0B3648B0EE480AF0EE680A042178449D
:102C700000F0A3F853EC182B51EC100B00F09EFB66
:102C800053EC192B00F09AF941EC100B51EC1D0B91
:102C900053EC102B00F03AFA53EC1A2B00F08EFB99
:102CA00053EC1C2B00F08AF941EC100B53EC102B69
:102CB0009DED000B51EC100B00F080F953EC1B2B39
:102CC00000F07CFB41EC100BD9E600000000000096
:102CD0000000F03F00000000182D4454FB21094083
:102CE0000000F07F00000000000000000000000075
:102CF0000000E03F00000000000000000000F03F86
:102D0000075C143326A6913C0000603C00000000E4
:102D1000182D4454FB21F93F8C0F00009A0F00003E
:102D2000000000000000E03F000000000000004044
:102D3000D60E0000E40E0000E80D0000F60D0000C5
:102D400000B52DED048BB0EE409AF0EE609A83B0A2
:102D500051EC190B00F03CFC41EC180B18EE100A7A
:102D600018EE901A8DED008B002818BF0120084343
:102D700020F00040C0F17F6000F1E040C00F14D0AF
:102D800019EE101A19EE900A8DED009B002918BF5C
:102D90000121084320F00040C0F17F6000F1E040D5
:102DA000C00F04BF0120FFF7E3FDB0EE480A03B0F7
:102DB000F0EE680ABDEC048B00BD70B504462DED45
:102DC000028B4D1E00EBC500B0EE408AF0EE608A2B
:102DD00090ED000B35F0060017D053EC182B51EC9A
:102DE000100B00F0EBFA41EC100B6D1E04EBC5006C
:102DF00090ED001B51EC100B53EC112B00F0DEF8A2
:102E000041EC100B35F00600E7D1022D36D0042D31
:102E10001CD0062D1CBFBDEC028B70BD53EC182BD3
:102E200051EC100B00F0CAFA94ED0A1B53EC112B75
:102E300000F0C4F853EC182B00F0C0FA94ED081B16
:102E400053EC112B00F0BAF841EC100B53EC182B9B
:102E500051EC100B00F0B2FA94ED061B53EC112B61
:102E600000F0ACF853EC182B00F0A8FA94ED040B2A
:102E700053EC102B00F0A2F841EC100B53EC182B84
:102E800051EC100B00F09AFA94ED021B53EC112B4D
:102E900000F094F853EC182B00F090FA94ED001B1E
:102EA00053EC112B00F08AF8BDEC028B41EC100BB7
:102EB00070BD10B553EC102B51EC100B00F07EF8E8
:102EC00041EC100B10BD00009FED050B10B553EC4D
:102ED000102B51EC100B00F019F941EC100B10BD48
:102EE000000000000000000000B52DED048B83B051
:102EF00041EC190B00F06CFB41EC180B18EE100ABA
:102F000018EE901A8DED008B002818BF01200843A1
:102F100020F00040C0F17F6000F1E040C00F14D00D
:102F200019EE101A19EE900A8DED009B002918BFBA
:102F30000121084320F00040C0F17F6000F1E04033
:102F4000C00F04BF0120FFF713FD51EC180B03B0B5
:102F5000BDEC048B00BD000021F00042A2F16052E4
:102F6000B2F5801F01F0004328BFD2F17F6C0BD96E
:102F70005FEA001C43EAC20242EB507018BF704780
:102F800028BF20F001007047B2F5801FBCBF184673
:102F900070474FEA410C1CF5001F02D2084600F0B2
:102FA00043BD70B500F0B4FA00000089FFF7F6BF2A
:102FB0004FF00040A0F580007047000010B591EA86
:102FC000030F48BF83F0004300F1D683841A71EBEE
:102FD000030C05D2121943EB0C03001B61EB0C012F
:102FE000DFF824E14FEA1154A4EB135C1EEA430F0F
:102FF00018BF9EEA445F73D023EA0E03DCF1200E73
:1030000021EA045143F4801332D322FA0CFE10EB70
:103010000E0023FA0CFE41EB0E01CCF1200E03FA58
:103020000EFE10EB0E0051F10001B1F5801FCCF146
:10303000200E32D201EB045112FA0EF2BDE810401C
:1030400058BF7047401C38BF5FEA420218BF704744
:10305000002814BF20F0010041F100014FEA4103B4
:1030600013F5001F38BF7047A1F1C04100F09EBAB0
:10307000012A43EB0302ACF1200CDCF11F0E32BF3E
:103080004FF0000E23FA0CF310EB030041EB045158
:10309000B4EB115FD0D0A1EB045101F580114908C8
:1030A0005FEA300001EB04510ED350F1000038BF4D
:1030B00012FA0EFE08D1BDE81040C9E7401C38BF27
:1030C0005FEA4202CAD1C3E7BDE810404FEA4103BC
:1030D00013F5001F38BF7047A1F1C04100F066BA78
:1030E0009EEA445F08D011EA5E0FBDE8104004BFBD
:1030F00001F0004100207047BDE8104070B500F0BD
:1031000007FA00BF64FBBE3E0000E0FF2DE9C041AE
:1031100030B4DFF8A0C23CEA111418BF3CEA131423
:1031200000F0EC8081EA03051CEA111444EAD5742E
:1031300018BF1CEA131500F0C780A4EB05044FF07C
:10314000004545EAC12145EAC32341EA505143EA1B
:10315000525304F17F74994204F500344FEAC020C1
:103160004FEAC22208BF904200F09C804FEA1365EC
:103170000FF24016765D4FEA134506FB05F7C7F1DF
:10318000807706FB07F74FEAD737A7FB036876423D
:10319000C8F58038A7FB06CE38BFA8F1010807FBA9
:1031A00008E64FF0000EA6FB028CE6FB03CEDCF136
:1031B000000CCEF1004E38BFAEF1010EA6FB0C584C
:1031C0004FF000074FF00005E6FB0E87A1FB08C695
:1031D000A0FB07CE16EB0E0645F10005E1FB0765E7
:1031E00015F1E04E7EBFA4F580345FEA46066D41DE
:1031F00016F1800745F100054FEA17274FEA0666EA
:1032000047EA0567A6F1DE46B6F1805F4FEA15256D
:103210001FD9384624F0010C05EBC471BCF1FE6FD8
:1032200001EB0C1102D8F0BCBDE8008124425CBF68
:1032300001F5801E9EEAC47F02D4F0BCBDE8008187
:10324000244238D4F0BCA1F1C041BDE8004100F0F7
:10325000ADB94FEAD22242EA43524FEAD323A7FB49
:1032600002864FEAD02040EA415007FB03661EEA7F
:103270000E0F4FEAD12105FB026658BFA6EB0056A0
:10328000B6EB00564FEA520E4EEAC37E18EB0E0E16
:1032900056EB530EBDD518EB02085E417F1C55F16D
:1032A0000005B6E74FF480154FF000074FF0000619
:1032B0004FF00008ADE7F0BC4FF0000001F1C04155
:1032C00001F00041BDE8008111EA0C1F0CEA131562
:1032D00000D00CE013EA0C1F00F025804FF0000036
:1032E000F0BC81EA030101F00041BDE80081F0BCBF
:1032F000BDE8004181EA030100F058B9F0BCBDE827
:10330000004170B500F004F9097EFC3E00F007B8FA
:1033100081EA03014FF0000001F00041704781EAAB
:10332000030100F043B9F0BCBDE800414FF00000DC
:1033300021497047FFFDFBF9F7F5F4F2F0EEEDEBF4
:10334000E9E8E6E4E3E1E0DEDDDBDAD8D7D5D4D3A3
:10335000D1D0CFCDCCCBCAC8C7C6C5C4C2C1C0BFEF
:10336000BEBDBCBBBAB9B8B7B6B5B4B3B2B1B0AFF5
:10337000AEADACABAAA9A8A8A7A6A5A4A3A3A2A1D9
:10338000A09F9F9E9D9C9C9B9A9999989797969594
:1033900095949393929191908F8F8E8E8D8C8C8B30
:1033A0008B8A8989888887878685858484838382B8
:1033B000828181800000FF070000F87FDFF848C1AC
:1033C00070B51CEA111E1EBF1CEA13159EEA0C0FF5
:1033D00095EA0C0F00F06F8081EA030423EA4C1396
:1033E0004EEAD47E21EA4C1141F4801143F480135B
:1033F000AE44A1FB024CA0FB0365AEF17F7E361903
:1034000055EB0C05A1FB034C4CF10003A0FB021C87
:1034100016EB0C06654153F10003094218BF46F054
:10342000010613F4007F0BD14FEA03314FEA053058
:10343000340341EA155140EA16506FF003020AE0E6
:103440004FEAC3214FEAC520F40241EA555140EA50
:1034500056506FF0020202EB2E4201EB025585EA54
:10346000CE710AD05FEA440C18BF24F0004450F13A
:10347000000041F1000120EAD47040F2FE7C624578
:1034800000D270BDA84214BF4FF080444FF04044BA
:10349000002E08BF0024BEF1806FA8BFA1F1C0417B
:1034A000BDE8704080F282804FF0000001F1C04121
:1034B00001F0004170479EEA0C0F0CEA131518BF8B
:1034C00095EA0C0F06D04FF0000081EA030E0EF0D3
:1034D000004170BD00F01CF88900013E00F007B803
:1034E00000F009B84FEA430C5FEA5C5C08D081EA5F
:1034F000030100F05BB84FEA410C5FEA5C5CF6D177
:103500004FF00000014970470000FF070000F87FFE
:103510000EF1020E2EF0030E5EF8046B364205D457
:10352000012A43EB030515F5001F12D8012841EBD2
:10353000010C1CF5001F0CD80ED14FEAD17C15F5FB
:10354000001F0CEB4C0C0CF1020C08BF4CEBD37CB5
:1035500004E04FF0080C01E04FEAD37C0CEB4C0583
:1035600026FA05F606F00706B6F1040C06D20EEBB5
:10357000860CBDE870404CF0010C6047DFE80CF0B1
:10358000090B02024FF000414FF00000A1F50021AD
:1035900070BD19461046012851EB010418BFD4F53F
:1035A000001484BF002001F0004170BD0808A0F5A0
:1035B00000114FEA3101704791EA030F10B581F015
:1035C00000413FF503AD83F0004300F0D5B80000A3
:1035D0002DE9F04101F5801CBCF5001FC0F2A98067
:1035E0004FEA115C21EA0C510CF1FD0C41F4801101
:1035F0005FEA5C0C0CF5C07C01D34000494130A46B
:10360000890241EA905187028E0E0A0CA45D04FBE8
:1036100004F602FB06F6C6F14046A4FB0662F60D70
:1036200046EA422606FB06F4A4FB01235242C3F1FC
:10363000404338BF5B1EA6FB02420024E6FB032486
:10364000D20B42EA4446A6FB0623A1FB02E2A3FBFF
:1036500007E4E3FB61426442C2F1404E38BFAEF181
:10366000010EA6FB04234FF00002E6FB0E32A2FB84
:1036700003463400E2FB6264A1FB06E6A4FB07E814
:10368000E4FB61687642C8F1405838BFA8F10108F0
:10369000A2FB06E4A3FB08E5E2FB6854A1FB05E6F8
:1036A000A7FB04E8E1FB648618F1200556F100064B
:1036B000A809A8F11B08B10908F03F08B8F10A0FE2
:1036C00040EA86601CD901EB0C51BDE8F08100BFD7
:1036D000FCF5EEE8E2DDD8D3CFCBC7C3C0BDB9B6A9
:1036E000B4B1AEACA9A7A5A3A19F9D9B9A989695AE
:1036F0009392908F8D8C8B89888786858483828135
:10370000A0FB006800FB01F208EB4208B8EB872839
:1037100007D5341858EB0104D5D5401C51F10001F0
:10372000D1E7341A78EB0104CDD4401E71F10001C9
:10373000C9E75FEA4C0C5FEA9C5C0DD105D34FF002
:10374000000001F00041BDE8F081BDE8F04170B536
:10375000FFF7DEFE6DDBFFBEBDE8F0414FF000007D
:10376000004970470000F87F10B591EA030F48BF89
:1037700083F000433FF52AAC841A71EB030C07D2A7
:1037800012198CF0004C43EB0C03001B61EB0C0195
:10379000DFF8A4E14FEA1154A4EB135C1EEA430FD7
:1037A00018BF9EEA445F00F0B08023EA6E035242E5
:1037B00021EA0451C3EB6E0338BF5B1EDCF1200E1F
:1037C00025D322FA0CFE10EB0E0043FA0CFE41EB5F
:1037D0000E01CCF1200E03FA0EFE10EB0E0051F19B
:1037E0000001CCF1200E29D412FA0EF201EB0451A3
:1037F000BDE8104058BF7047401C1CBFB2F1004FDD
:10380000704700280CBF491C20F00100704712EBE4
:10381000020E43EB030218BF4FF0010E4EEA4202C4
:10382000ACF1200CDCF11E0E54D943FA0CFE10EB67
:103830000E0051F1FF31CCF11E0ED5D50EF1010E67
:1038400012FA0EFE404141EB010101EB445C5FEADC
:103850005C5C10D910EBDE7001EB045138BFBEF197
:10386000004FBDE8104018BF704700280CBF491C2E
:1038700020F00100704730D24FEAD42C11F500112E
:1038800024F400641BD0B1FA81F20B3AA41AA41EEE
:10389000D2F12003914030FA03F31943904001EB39
:1038A000CC71002C01EB0451BDE81040A8BF70475B
:1038B00001F1C0414FF0000001F000417047B0FA43
:1038C00080F310FA03F100D110BDE41A173C48054B
:1038D000C90AE4E701EB045110BD491001EB0451A2
:1038E000BDE810404FEA300002E04FF000017047A1
:1038F0004A0008BF0042F8D0B2F5001F28BF704749
:1039000001F000414FF0000070479EEA445F07D08D
:1039100011EA5E0FBDE8104004BF0021002070478F
:10392000BDE8104070B5FFF7F3FD00BF40DFF63E85
:1039300083F00041104670470000E0FF43004FEA6B
:10394000D30C4FEA3C0C43401FBF40070CF16051C1
:1039500013F0FE4F70471CF0006F03D100200CF0F5
:10396000004170470CF0004343EA507010B540EA44
:10397000CC0000F00EF800BF000000924FEA0001FA
:10398000FFF714BE4FF000414FF00000A1F50021F9
:1039900070470EF1020E2EF0030E5EF8044B244227
:1039A00004D44FEA4102B2F17F4F11D84FEA4003ED
:1039B000B3F17F4F0CD80ED14FEAD07CB2F17F4FDC
:1039C0000CEB4C0C0CF1020C08BF4CEBD17C04E06E
:1039D0004FF0080C01E04FEAD17C0CEB4C0324FAC9
:1039E00003F404F00704B4F1040C06D20EEB840CCB
:1039F000BDE810404CF0010C6047DFE80CF0070810
:103A000002024FF00040A0F5800010BD08464200C1
:103A100018BFD2F1807288BF00F0004010BD4FF097
:103A20004070E1EE100A7047FF2141EAD050C00516
:103A30007047000000000000555555555555C53FCD
:103A40007D6FEB0312D6D4BF5544880E55C1C93FD4
:103A50003B8F68B52882A4BF88B20175E0EF493F6B
:103A600009F7FD0DE13D023F4B2D8A1C273A03C0AB
:103A7000C88A599CE52A004059018D1B6C06E6BF97
:103A800082922EB1C5B8B33FA83A000800000020CA
:103A900064000000E80100080C3B000864000020FE
:103AA0005C0F00000402000800000000000000009D
:103AB0000000000000000000000000000000000006
:103AC00000000000000000000000000000000000F6
:103AD00000000000000000000000000000000000E6
:103AE00000000000000000000000000000000000D6
:103AF00000000000000000000000000000000102C3
:0C3B00000304010203040607080900008A
:04000005080001AD41
:00000001FF
